:030000000225EDE9
:0C25ED00787FE4F6D8FD758128022634C2
:0A2FA9000102030405060708090AE7
:042E5C00410FB5006D
:10276F00E4900EC6F0C2AF122FE412000E7F0A7E65
:10277F0000122EA5122C15122F1C122D29E4FF1258
:10278F002EC77F0A7E00122EA5122A32D2AF122F29
:10279F0081E4900EC5F0900FAFF0A3F0900E6FF0A4
:1027AF00900EB97402F0A3F0A3F0A3F0A3F0A3F07E
:1027BF007B017A0E79B9122DDE7B017A0E79BF1269
:0427CF002C8A80DCF4
:042FE00043D960224F
:042FE40053D9BF22DC
:06001D00E4F5FE022FE0F5
:0E2F810053D9E043D980D2DE75FDFF02001D5A
:102BD60043F1F053A4EF43A44075F2FF53A5C0435D
:102BE600F32053F3FC53A6A743F43F53A7C075F550
:102BF600FF75D48F75D57F75D603E4F59BF59FF5E4
:0F2C06009DF5E1F5E243E12043E10143E2402285
:102F360043868375B2C343B98053B9FC43B9C0E530
:092F4600B9F420E5FA43A90222C6
:042FE80043C9802237
:0F000E00122FE4122F36122BD6122F8F022FE44F
:102D2900E4900BB9F0900BB2F0900BB1F0900BB3AB
:102D390004F0A3740CF0A374B1F0759850E58954AC
:0F2D49000F4420F589758DE6D2ACD28ED29C2234
:102E3500900DA1E0600214F0900DA1E07010900BD0
:102E4500B9E064056008E4F0900BB2F0D29C900DF7
:072E5500A2E0600214F0226C
:032FF800D29C2246
:092FBD00900DA2740BF0D29922D0
:030023000213F5D0
:0D13F500C0E0C0F0C083C082C0D075D01829
:10140200209803021526C298900DA174C0F0AF99DE
:10141200900BB9E0FE1460621470030214B71470EA
:10142200030214D31470030214F52404600302159A
:101432001CEFF46003021526900BB904F0900BB672
:10144200F0A3740BF0A374C0F0900BB6E0FBA3E41E
:1014520075F0011210CEA9F0FAEF12101D900BBA1E
:101462007401F0A3740CF0A374B6F0A37401F0A39A
:10147200740BF0A374C5F0021526EFB4A607900B07
:10148200B9E0048015EF900BB9B4FF257401F09018
:101492000BB6F0A3740BF0A374C0F0900BB6E0FB94
:1014A200A3E475F0011210CEA9F0FAEF12101D801C
:1014B20073E4F0806F900BB6E0FBA3E475F00112C9
:1014C20010CEA9F0FAEF12101D900BB9E004F080D3
:1014D20053900BB9E004F0900BB6E0FBA3E475F077
:1014E200011210CEA9F0FAEF12101D24FC900BB2DB
:1014F200F08031900BB6E0FBA3E475F0011210CE40
:10150200A9F0FAEF12101D900BB2E014F0E0701483
:10151200C29C900BB97405F0800AEE6405600590D8
:101522000BB9E4F0309930C299900BB1E06022908F
:101532000BB3E0FBA3E0FAA3E0F9120FD7F5999001
:101542000BB4E475F0011210B8900BB1E014F08006
:0715520006900DA2740BF0DE
:0B155900D0D0D082D083D0F0D0E032A0
:042FEC00759B80222F
:042FF000E4F59B2247
:0C2F9D0000060504030201070800000004
:082E6000410E0B00410E0C0BAA
:102E0A0078DE7C0E7D017BFF7A2F799D7E007F091B
:102E1A00120FB1E580540F900E0AF0E024DEF5821D
:0A2E2A00E4340EF583E0900001F09F
:012E3400227B
:0A2FB300EF75F019A4900002F0225F
:07000300900003741AF022C3
:101ED900122FDA900FB6EFF0900002E0600214F0D2
:101EE900900003E0600214F0900002E07016900F79
:101EF900B6E0FFB40107E4900001F08003EF70043D
:101F09009007F0F0900FB6E0640170629007F0E07E
:101F19006009900003E07003022FEC122FF0900E7D
:101F29000BE02401FFE433FE7C007D03121063AF54
:101F390005EFF07037A3E075F00C84E5F0F0E0FFF1
:101F4900241CF582E43400F5837401F0EF2401FFC9
:101F5900E433FE7C007D0C121063900E0CEDF0E072
:101F6900241CF582E43400F5837404F08049900F51
:101F7900B6E070469007F0E07040900E0BF07037B5
:101F8900A3E075F00C84E5F0F0E0FF241CF582E491
:101F99003400F5837401F0EF2401FFE433FE7C0083
:101FA9007D0C121063900E0CEDF0E0241CF582E418
:0A1FB9003400F5837404F01220AA2E
:011FC30022FB
:102F0100E4FFFEEEC39D500F120FD72FFF0E740189
:0A2F110029F9E43AFA80ECEFF4FF2E
:012F1B002293
:1022E400900FA67401F0A3740CF0A374B1F0900FD6
:1022F400A6E0FBA3E475F0011210CEA9F0FA74FF76
:1023040012101D900FA6E0FBA3E475F0011210CE8D
:10231400A9F0FA74A612101D900001E0FF900FA618
:10232400E0FBA3E475F0011210CEA9F0FAEF12104D
:102334001D900BB1E0FF900FA6E0FBA3E475F00144
:102344001210CEA9F0FAEF12101D900BB1E0FF2489
:10235400B0F9E4340CFA900FA67401F0A3EAF0A3E8
:10236400E9F07B017A0C79B1EF14FD122F01900F83
:10237400A6E0FBA3E0FAA3E0F9EF12101D900BB363
:0B2384007401F0A3740CF0A374B1F01E
:01238F00222B
:102B0C00900BB17423F0900CB57460F0A37442F088
:102B1C00E4900E6EF0122FDAEFB4010A900BC6E0BF
:102B2C00900001F0800F900BC6E0FF900001E0B523
:102B3C000709122E0A9007F07401F07B017A0C79C8
:042B4C00B70226F4B2
:10239000900CB57460F0A37404F0900F677401F0B2
:1023A000A3740BF0A374C6F0A37401F0A3740CF033
:1023B000A374B7F0900F67E0FBA3E475F00112106F
:1023C000CEA9F0FA120FD7900F6DF0900F67E0FBD7
:1023D000A3E475F0011210CEA9F0FA120FD7900FF6
:1023E0006FF0900F67E0FBA3E475F0011210CEA927
:1023F000F0FA120FD7900F6EF0900F6AE0FBA3E097
:10240000FAA3E0F9900F6EE0FD7C00122D85900F8D
:102410006DE0FF900F6FE0FD7C00900F6AE0FBA382
:10242000E0FAA3E0F9900F6EE0900F4EF012183131
:0A243000900F6EE02407900BB1F04E
:01243A00227F
:10199200E4900DA9F0900CB57460F0A37444F0903B
:1019A2000DA37401F0A3740BF0A374C6F0900DA301
:1019B200E0FBA3E475F0011210CEA9F0FA120FD7E2
:1019C200900DA6F0900DA3E0FBA3E475F0011210B8
:1019D200CEA9F0FA120FD7900DA8F0900DA3E0FB5C
:1019E200A3E475F0011210CEA9F0FA120FD7900DF0
:1019F200A7F0900DA3E0F9A3E0FAA3E0900F7BC952
:101A0200F0A3EAF0A3E9F0900DA7E0FF900F7EE4C7
:101A1200F0A3EFF07B017A0D79AA122B50900BB153
:101A22007407F01222E4122FBD900BB1E070FA900D
:101A32000DA7E0603F900DA9E075F008A4FFAEF09D
:101A4200900DA8E07C002FFDEC3EFC74AA2FF974E7
:101A52000D3EFA7B01900DA6E014FF120A787F0A70
:101A62007E00122EA5900DA7E024F8F0900DA9E0BB
:101A720004F080BB900DA6E0FF75F0A6A42422F529
:101A820082E5F03400F5837401F075F0A6EFA4242A
:101A920023F582E5F03400F5837401F075F0A6EFCA
:0D1AA200A42424F582E5F03400F583E4F07F
:011AAF002214
:10002600E4900F59F0785A7C0F7D017BFF7A2F7987
:10003600A6FE7F03120FB1900CB57460F0A3740393
:10004600F0900F537401F0A3740BF0A374C6F0A3E1
:100056007401F0A37400F0A37410F0E4FF900F5342
:10006600E0FBA3E475F0011210CEA9F0FA120FD747
:10007600FE900F56E0FBA3E475F0011210CEA9F036
:10008600FAEE12101D0FEFB40CD3900BD2E0900FC6
:1000960059F0C3940150030203F4E0FFD3940C40DB
:1000A600030203F4900F537401F0A3740BF0A374CE
:1000B600D3F0EF75F0A6A42402F9740035F0FA7BAC
:1000C60001C002C001900F53E0F9A3E0FAA3E0904B
:1000D6000F7BC9F0A3EAF0A3E9F0A3E4F0A3742030
:1000E600F0D001D002122B50900F54E475F020127C
:1000F60010B8900F59E075F00C84E5F075F0A6A4E1
:1001060024A8F9740035F0FA7B01C002C001900FF3
:1001160053E0F9A3E0FAA3E0900F7BC9F0A3EAF05D
:10012600A3E9F0A3E4F0A37420F0D001D002122BCF
:1001360050900F54E475F0201210B8900F59E02437
:1001460001FFE433FE7C007D0C121063ED75F0A612
:10015600A424A8F9740035F0FA7B01C002C001900E
:100166000F53E0F9A3E0FAA3E0900F7BC9F0A3EAEE
:10017600F0A3E9F0A3E4F0A37420F0D001D00212BA
:100186002B50900F54E475F0201210B81224D3901F
:100196000F537401F0A3740CF0A374B7F0900F59C9
:1001A600E014900E6FF0122690900F5AEFF064FE56
:1001B6006054122679900F5BEFF0BFFE1A900E6F17
:1001C600E0900F5BF02401FFE433FE7C007D0C120F
:1001D6001063900E6FEDF0900F5B122679900F5C16
:1001E600EFF0BFFE1A900E6FE0900F5CF02401FF57
:1001F600E433FE7C007D0C121063900E6FEDF090E0
:100206000F5CE00202B4122CF7900F5AEFF0605325
:10021600E024F0FF900F53E0FBA3E475F001121009
:10022600CEA9F0FAEF12101D900F5AE075F0A6A4B1
:1002360024A2F974FF35F0FA900F7B7401F0A3EA5B
:10024600F0A3E9F0A3E4F0A37460F0900F53E0FB91
:10025600A3E0FAA3E0F9122B50900F54E475F06076
:100266000203E1900E6FE0900F5AF004A3F0900E97
:100276006FE02402FF900F5CF0900F5AE004FE90AE
:100286000F53E0FBA3E475F0011210CEA9F0FAEECD
:1002960012101D900F5BE004FE900F53E0FBA3E4E9
:1002A60075F0011210CEA9F0FAEE12101DEF04FF40
:1002B600900F53E0FBA3E475F0011210CEA9F0FAFB
:1002C600EF12101D900F5AE02404F582E43400F575
:1002D60083E0FF900F53E0FBA3E475F0011210CE0C
:1002E600A9F0FAEF12101D900F5BE02404F582E4EA
:1002F6003400F583E0FF900F53E0FBA3E475F001B3
:100306001210CEA9F0FAEF12101D900F5CE0240433
:10031600F582E43400F583E0FF900F53E0FBA3E49D
:1003260075F0011210CEA9F0FAEF12101D900F5AB7
:10033600E075F0A6A42428F9740035F0FA900F7B36
:100346007401F0A3EAF0A3E9F0A3E4F0A37420F0AB
:10035600900F53E0FBA3E0FAA3E0F9122B50900FA5
:1003660054E475F0201210B8900F5BE075F0A6A467
:100376002428F9740035F0FA900F7B7401F0A3EA93
:10038600F0A3E9F0A3E4F0A37420F0900F53E0FB90
:10039600A3E0FAA3E0F9122B50900F54E475F02075
:1003A6001210B8900F5CE075F0A6A42428F974002A
:1003B60035F0FA900F7B7401F0A3EAF0A3E9F0A3FD
:1003C600E4F0A37420F0900F53E0FBA3E0FAA3E05F
:1003D600F9122B50900F54E475F0201210B8900FBC
:0E03E60053A3A3E0C394B1FFEF04900BB1F05A
:0103F40022E6
:101AB0007B017A0B79C0900BC3E0FD122F01EF6020
:101AC00003021BC5900BC5E024FD7003021B6014CC
:101AD0007003021B7324C07003021B861470030280
:101AE0001B9924036003021BC2122FDA900FB7EF79
:101AF000F064017029900001E0700B900BC6E0606B
:101B0000051200038057900001E0FF900BC6E0FE35
:101B10006F6003021BC5EE7003021BC5803F900F70
:101B2000B7E06003021BC59007F0E070179000015A
:101B3000E0FF900BC6E0B5070B1200039007F074AE
:101B400001F080199007F0E064017079900001E0E5
:101B5000FF900BC6E06F706D9007F004F0022B0C45
:101B6000900BC2E0540FFF605C900001E06F705575
:101B7000020026900BC2E0540FFF6049900001E084
:101B80006F7042022390900BC2E0540FFF603690BA
:101B90000001E06F702F021992900BC2E0540FFF0A
:101BA0006023900001E06F701C900E0DE060074311
:101BB000C740E4F0800953C7BF900E0D7401F002D6
:051BC0000CAF43C7401B
:011BC50022FD
:1028E700900BB9E06405704B121AB0122FDA900FF3
:1028F700B8EFF07021900BC2E0540FFF900001E099
:10290700B507057F02122FB39007F0E06020900B08
:10291700B1E0601A8012900FB8E0B401117F011284
:102927002FB3900BB1E060061222E4122FBDE490A2
:062937000BB9F0022FF8BD
:10243B00E4900FB9F0900FB9E0FFC3940C40030286
:10244B0024D275F0A6EFA424C9F582E5F03400F58B
:10245B0083E0640170687B017A0E790E900F4E74E5
:10246B0060F07D207C00121831900FB9E075F0A65A
:10247B00A42448F9740035F0FA7B01C003900F7B5C
:10248B00EBF0A3740EF0A3740EF0A3E4F0A374604E
:10249B00F0D003122B50900FB9E0FF75F0A6A424D7
:1024AB00C9F582E5F03400F583E4F075F0A6EFA4EE
:1024BB0024CAF582E5F03400F5837401F022900F05
:0724CB00B9E004F002244017
:0124D20022E7
:1024D3009007F0E0700302255FE4900FBAF0900FCD
:1024E300BAE0FFC3940C507474102FF582E43400E7
:1024F300F583E01424FC50051460308047900FBA34
:10250300E0FF121CD2900FBAE0FE2404F582E434FB
:1025130000F583EFF074102EF582E43400F583E0C8
:10252300FF741C2EF582E434008013900FBAE0FF91
:10253300121CD2900FBAE02404F582E43400F58330
:10254300EFF08010900FBAE0241CF582E43400F51C
:0C255300837401F0900FBAE004F0808265
:01255F002259
:051CD200900F70EFF01F
:101CD700E075F0A6A4FFAEF02428F974003EFAA33D
:101CE7007401F0A3EAF0A3E9F074A82FF974003E99
:101CF700FAA37401F0A3EAF0A3E9F0900F74E0F9F6
:101D0700A3E0FAA3E0900F8AC9F0A3EAF0A3E9F0F1
:101D1700A37420F0900F71E0FBA3E0FAA3E0F9129F
:101D2700293DEF7035900F70E075F0A6A42428F9CF
:101D3700740035F0FA7B01122D58EF900F7760058C
:101D47007412F080037411F0900F70E0241CF58278
:101D5700E43400F5837401F08072900F70E075F041
:101D6700A6A42428F9740035F0FA7B01122D58EF48
:101D77006044900F70E075F0A6A42428F97400352C
:101D8700F0FA7B017D1F122993900F70E0FE75F02A
:101D9700A6A42447F582E5F03400F583E06F900FA1
:101DA7007760087407F0741C2E80177402F0900F88
:101DB70070E0241C800C900F777401F0900F70E096
:101DC700241CF582E43400F5837402F0900F77E069
:011DD700FF0C
:011DD80022E8
:10267900E004FF900F53E0FBA3E475F0011210CEC4
:07268900A9F0FAEF12101D89
:10269000E4FB900E6FE0FA75F0A6A424C8F582E57D
:1026A000F03400F583E06401702D900E6FE0FF754B
:1026B000F0A6A424C8F582E5F03400F583E4F0AB7D
:1026C00007EF2401FFE433FE7C007D0C12106390C1
:1026D0000E6FEDF0AF0322EA2401FFE433FE7C002D
:1026E0007D0C121063900E6FEDF00BEBC3940C4059
:0326F000A17FFEC9
:0126F30022C4
:102CF700E4FF75F0A6EFA424CAF582E5F03400F5E9
:102D070083E0B4011575F0A6EFA424CAF582E5F0B7
:102D17003400F583E4F0EF04FF220FEFB40CD37F08
:012D270000AB
:012D28002288
:0B2D5800900FA9EBF0A3EAF0A3E9F054
:102D6300E4FF900FA9E0FBA3E475F0011210CEA9D4
:102D7300F0FA120FD760037F01220FEFB420E37F35
:012D8300004F
:012D8400222C
:1003F500E4900FBBF012001DE4900FBBF0900FBB13
:10040500E0FFC3940C4003020756EF75F020A424C7
:1004150031F9740A35F0FA7B01122D58EF70030299
:1004250005CE900FBBE0FF75F0A6A424CCF582E5C0
:10043500F03400F583E4F0EF75F020A42431F9746D
:100445000A35F0FA7B017D1F122993900FBBE0FE60
:1004550075F020A42450F582E5F0340AF583E0B563
:10046500072A900FBBE0FF75F0A6A424CBF582E523
:10047500F03400F583E4F075F0A6EFA424CDF58201
:10048500E5F03400F5837401F002063275F0A6EE4E
:10049500A424CBF582E5F03400F583E07057900F86
:1004A500BBE0FF75F0A6A424CBF582E5F03400F59A
:1004B50083E004F0EF75F020A4FFAEF024B1F974E9
:1004C500083EFA7B01C003C002C00174312FF974E4
:1004D5000A3EFA900F7BEBF0A3EAF0A3E9F0A3E460
:1004E500F0A37420F0D001D002D003122B50900F4E
:1004F500BBE0020621900FBBE075F020A4FFAEF033
:1005050024B1F974083EFA7B01C003C002C001742E
:10051500312FF9740A3EFA900F8AEBF0A3EAF0A3A3
:10052500E9F0A37420F0D001D002D00312293DEFE9
:100535006040900FBBE075F020A4FFAEF024B1F948
:1005450074083EFA7B01C003C002C00174312FF963
:10055500740A3EFA900F7BEBF0A3EAF0A3E9F0A34F
:10056500E4F0A37420F0D001D002D003122B500286
:100575000632900FBBE0FF75F0A6A424CBF582E50B
:10058500F03400F583E004F075F0A6EFA424CBF574
:1005950082E5F03400F583E0C3940A500302063285
:1005A500900FBBE0FF75F0A6A424CBF582E5F034EF
:1005B50000F583E4F075F0A6EFA424CDF582E5F00F
:1005C5003400F5837402F08064900FBBE0FF75F092
:1005D500A6A424CCF582E5F03400F583E004F0759B
:1005E500F0A6EFA424CCF582E5F03400F583E0C352
:1005F5009403900FBBE04024FF75F0A6A424CCF52E
:1006050082E5F03400F583E4F075F0A6EFA424CD7F
:10061500F582E5F03400F583E4F0801175F0A6A4C9
:1006250024CDF582E5F03400F5837403F0900FBB1B
:10063500E0FF75F0A6A424CDF582E5F03400F5833E
:10064500E06403700302074DEF75F0A6A42428F9B2
:10065500740035F0FA7B01C003C002C001900FBBE6
:10066500E075F020A42431F9740A35F0FA900F8A68
:10067500EBF0A3EAF0A3E9F0A37420F0D001D002D7
:10068500D00312293DEF700302074D900FBBE0FF29
:1006950075F0A6A424C8F582E5F03400F58374014D
:1006A500F0EF75F0A6A42428F9740035F0FA7B0163
:1006B500C003C002C001900FBBE075F020A4243137
:1006C500F9740A35F0FA900F7BEBF0A3EAF0A3E991
:1006D500F0A3E4F0A37420F0D001D002D003122BD4
:1006E50050900FBBE075F0A6A424CDF582E5F0345B
:1006F50000F583E0900FBB6026E0FF75F0A6A4240B
:10070500C9F582E5F03400F5837401F075F0A6EFC4
:10071500A424CAF582E5F03400F583E4F08029E0ED
:10072500FF75F0A6A424CAF582E5F03400F58374BC
:1007350001F0EF75F0A6A42448F9740035F0FA7BB2
:10074500017D607C00122D85900FBBE004F0020452
:0107550002A1
:010756002280
:10223100900F80EFF0A3EDF0A3EBF0A3EAF0A3E998
:01224100F0AC
:102242007B017A0779F17DC07C00122D85900F8089
:10225200E060030222E3A3E075F010A4FFAEF07B7E
:10226200017A0779F1900F247410F01216CEE490DF
:102272000F85F0E4900F86F0900F86E0F9900F85BD
:10228200E0C454F024F1F582E43407F583E58229B1
:10229200F582E43583F583E0FD900F81E075F0105F
:1022A200A4FBAAF0900F85E075F020A42BFFE5F0C7
:1022B2003AFEE97A002FFFEA3EFE900F82E0FBA38E
:1022C200E0FAA3E0F98F828E83ED12102F900F8631
:1022D200E004F0E0B410A1900F85E004F0E0B40C4B
:0122E2009269
:0122E30022D8
:102A3200E4900EDDF07F0A7E00122EA5E580548020
:102A4200C41313135401FFE5905440C41354074FA9
:102A5200FFE5905480C41354074FFFFE900EDDE053
:102A620004F0E0C3940540CDEEB401047F0180057B
:082A7200122E0AE4FF122FD41A
:012A7A002239
:062FD400900FBCEFF0229B
:062FDA00900FBCE0FF2295
:10288D00A20892A2A20992A3A20A92A4A20B92A5B7
:10289D00A20C92A6A20D92A7300E0543C70180038C
:1028AD0053C7FE300F0543C702800353C7FD3000E9
:1028BD000543C704800353C7FB30010543C7088098
:1028CD000353C7F730020543C710800353C7EF30DA
:0A28DD00030443C7202253C7DF2283
:1020AA00E4FD900FB0E004F07006900FAFE004F08A
:1020BA00900FAFA3E0FF54077002B214EF540F70F1
:1020CA0008B215900FAFF0A3F0E4900EE7F0A3F07A
:1020DA00A3F0A304F0E4FC741C2CF582E43400F5AC
:1020EA0083E014603214601024FE6015047016ED4B
:1020FA004401FD301521800DED4410FD3014188087
:10210A0004ED4401FD900EE9E0FEA3E0FF900EE726
:10211A00E04EF0A3E04FF0ED30E4053014108007F4
:10212A00ED30E00A30150553C7BF8005800043C76C
:10213A0040900EEAE025E0F0900EE9E033F00CEC76
:10214A00640C7093900EE7E0FEA3E0F4FFEEF490C7
:10215A000EE7F0A3EFF0900EE7E0FEA3E0F521EE24
:05216A00F52002288DA4
:102C15007B017A0079017DEF7C07122D857F0112FA
:102C25002FB3E4900000F0900000E0FFC3940C5037
:102C350015741C2FF582E43400F5837401F09000BF
:0B2C450000E004F080E1E49007F0F0F4
:012C50002261
:0B293D00900F87EBF0A3EAF0A3E9F095
:10294800E4FF900F8DE0FEEFC39E503C900F8AE0AD
:10295800FBA3E0FAA3E0F9120FD7FE900F87E0FB84
:10296800A3E0FAA3E0F9120FD7B50616900F88E492
:1029780075F0011210B8900F8BE475F0011210B8C1
:0A29880080037F01220F80BA7F0058
:012992002222
:102D8500AE04AF05900EDEEBF0A3EAF0A3E9F090F8
:102D95000EDEE0FBA3E475F0011210CEA9F0FAE413
:0C2DA50012101DEF1F70011EEF4E70E3B6
:012DB10022FF
:102B5000900F78EBF0A3EAF0A3E9F0900F7E74FFFA
:102B6000F5F01210CE45F0602A900F7BE0FBA3E455
:102B700075F0011210CEA9F0FA120FD7FF900F785E
:102B8000E0FBA3E475F0011210CEA9F0FAEF1210E9
:042B90001D80C822BA
:102E68004E0F11118013140415484D2D5452415022
:012E78000059
:0B26F400900FACEBF0A3EAF0A3E9F0BC
:1026FF00122FDA900FACE0F9A3E0FAA3E0900F0BE2
:10270F00C9F0A3EAF0A3E9F0A37401F0A3740FF0EA
:10271F00A37411F0EFB4010F900F0EE0FBA3E0FADA
:10272F00A3E0F974108033900F0EE0FBA3E0FAA33F
:10273F00E0F9120FD76028900F0EA3E475F0011285
:10274F0010CEA9F0FA120FD7FF900F0BE0FBA3E406
:0F275F0075F0011210CEA9F0FAEF12101D80C80C
:01276E002248
:0B2F4F00122FC6900EF7E0FEA3E0FF7B
:0E2F5A00EF1FAC0670011E4C60030080F322D6
:042FF40000000022B7
:072FC6005390C053B0C0227C
:072FCD0043903F43B03F2297
:10256000EF900EF77045F0A37408F0A3E4F0A374A5
:102570006BF0A3E4F0A37464F0A3E4F0A3740DF093
:10258000A3E4F0A3740CF0A3E4F0A3743BF0E4A381
:10259000F0A3F0A37403F0A37484F0A3E4F0A37495
:1025A00078F0A37402F0A37480F022E4F0A304F0A6
:1025B000A3E4F0A37409F0A3E4F0A3740AF0A3E485
:1025C000F0A37403F0E4A3F0A3F0A3F0A37408F065
:1025D000A3E4F0A37403F0A3E4F0A3746EF0A3E407
:0D25E000F0A37408F0A3E4F0A3743EF02211
:1029E600E4900FB1F0A3F0122FCD900F03122F55E4
:1029F600122FC6A3122F55122FCDA3122F55E5B0B5
:102A0600543F75F040A4FFAD907C00ED543F2FFE7F
:102A1600EC35F0900FB1F0A3CEF0900F09122F55C0
:0B2A260012001D900FB1E0FEA3E0FFC6
:012A31002282
:10128000900FBD7401F0EFB40C0040030213EC901A
:101290001296F82828730212BA0212D30212EC0234
:1012A000130502131E0213370213500213690213AF
:1012B0008202139A0213B20213CAD290900F031241
:1012C0002F55C290A3122F55D290A3122F55A29042
:1012D0000213E0D291900F03122F55C291A3122F47
:1012E00055D291A3122F55A2910213E0D292900FE2
:1012F00003122F55C292A3122F55D292A3122F552B
:10130000A2920213E0D293900F03122F55C293A31F
:10131000122F55D293A3122F55A2930213E0D29409
:10132000900F03122F55C294A3122F55D294A312DB
:101330002F55A2940213E0D295900F03122F55C29D
:1013400095A3122F55D295A3122F55A2950213E003
:10135000D2B0900F03122F55C2B0A3122F55D2B0A6
:10136000A3122F55A2B00213E0D2B1900F03122F97
:1013700055C2B1A3122F55D2B1A3122F55A2B1025B
:1013800013E0D2B2900F03122F55C2B2A3122F5501
:10139000D2B2A3122F55A2B28046D2B3900F03123D
:1013A0002F55C2B3A3122F55D2B3A3122F55A2B3F8
:1013B000802ED2B4900F03122F55C2B4A3122F5512
:1013C000D2B4A3122F55A2B48016D2B5900F031237
:1013D0002F55C2B5A3122F55D2B5A3122F55A2B5C2
:1013E000E433900FBDF0900F09122F5512001D909D
:0413F0000FBDE0FF4E
:0113F40022D6
:10156400E4FBFAC2AFEF6401600302161B122FC63C
:10157400122FF4122FCD122FF4A2B53325E0FBEA7B
:1015840033FAA2B4E433FFEB4F25E0FBEA33FAA2CB
:10159400B3E433FFEB4F25E0FBEA33FAA2B2E433C2
:1015A400FFEB4F25E0FBEA33FAA2B1E433FFEB4F44
:1015B40025E0FBEA33FAA2B0E433FFEB4F25E0FB6E
:1015C400EA33FAA295E433FFEB4F25E0FBEA33FA62
:1015D400A294E433FFEB4F25E0FBEA33FAA293E451
:1015E40033FFEB4F25E0FBEA33FAA292E433FFEB3F
:1015F4004F25E0FBEA33FAA291E433FFEB4F25E0F9
:10160400FBEA33FAA290E433FFEB4FFBD2AF900F27
:1016140001122F550216C0122F4F122FCD900EFF1C
:10162400122F55A2B5E433FFEB4F25E0FBEA33FA62
:10163400A2B4E433FFEB4F25E0FBEA33FAA2B3E4B0
:1016440033FFEB4F25E0FBEA33FAA2B2E433FFEBBE
:101654004F25E0FBEA33FAA2B1E433FFEB4F25E078
:10166400FBEA33FAA2B0E433FFEB4F25E0FBEA33A5
:10167400FAA295E433FFEB4F25E0FBEA33FAA29498
:10168400E433FFEB4F25E0FBEA33FAA293E433FFA4
:10169400EB4F25E0FBEA33FAA292E433FFEB4F254C
:1016A400E0FBEA33FAA291E433FFEB4F25E0FBEAD7
:1016B40033FAA290E433FFEB4FFBD2AF122FCD905D
:0916C4000EFD122F55AE02AF031A
:0116CD0022FA
:02075700A907F0
:10075900C2AFED640160030208C8E9B40C004003AC
:100769000208C3900773F82828730207970207B095
:100779000207C90207E20207FB02081402082D0258
:10078900084602085F0208780208910208AAC29086
:10079900122FF4D290122FF4A290E4337A00FBD2F4
:1007A900AF900F01020913C291122FF4D291122FA7
:1007B900F4A291E4337A00FBD2AF900F010209321F
:1007C900C292122FF4D292122FF4A292E4337A0039
:1007D900FBD2AF900F01020951C293122FF4D293A9
:1007E900122FF4A293E4337A00FBD2AF900F0102E7
:1007F9000970C294122FF4D294122FF4A294E43304
:100809007A00FBD2AF900F0102098FC295122FF423
:10081900D295122FF4A295E4337A00FBD2AF900F50
:10082900010209AEC2B0122FF4D2B0122FF4A2B055
:10083900E4337A00FBD2AF900F010209CDC2B112A5
:100849002FF4D2B1122FF4A2B1E4337A00FBD2AF64
:10085900900F010209ECC2B2122FF4D2B2122FF496
:10086900A2B2E4337A00FBD2AF900F01020A0BC2A5
:10087900B3122FF4D2B3122FF4A2B3E4337A00FBEC
:10088900D2AF900F01020A2AC2B4122FF4D2B412C5
:100899002FF4A2B4E4337A00FBD2AF900F01020A1D
:1008A90048C2B5122FF4D2B5122FF4A2B5E4337AA7
:1008B90000FBD2AF900F01020A66D2AF020A6FE9BC
:1008C900B40C004003020A6D9008D8F82828730276
:1008D90008FC02091B02093A0209590209780209AE
:1008E900970209B60209D50209F4020A13020A316C
:1008F900020A4FC290122F52D290900EFF122F551A
:10090900A290E4337A00FBD2AFA3122F55D2900202
:100919000A6FC291122F52D291900EFF122F55A237
:1009290091E4337A00FBD2AFA3122F55D291020A78
:100939006FC292122F52D292900EFF122F55A2928D
:10094900E4337A00FBD2AFA3122F55D292020A6F79
:10095900C293122F52D293900EFF122F55A293E4F5
:10096900337A00FBD2AFA3122F55D293020A6FC27A
:1009790094122F52D294900EFF122F55A294E43361
:100989007A00FBD2AFA3122F55D294020A6FC295F7
:10099900122F52D295900EFF122F55A295E4337A59
:1009A90000FBD2AFA3122F55D295020A6FC2B01223
:1009B9002F52D2B0900EFF122F55A2B0E4337A0015
:1009C900FBD2AFA3122F55D2B0020A6FC2B1122FB8
:1009D90052D2B1900EFF122F55A2B1E4337A00FB27
:1009E900D2AFA3122F55D2B1020A6FC2B2122F523F
:1009F900D2B2900EFF122F55A2B2E4337A00FBD285
:100A0900AFA3122F55D2B2020A6FC2B3122F52D21C
:100A1900B3900EFF122F55A2B3E4337A00FBD2AF85
:100A2900A3122F55D2B3803EC2B4122F52D2B49022
:100A39000EFF122F55A2B4E4337A00FBD2AFA312F2
:100A49002F55D2B48020C2B5122F52D2B5900EFFC5
:100A5900122F55A2B5E4337A00FBD2AFA3122F555A
:0E0A6900D2B58002D2AF900EFD122F55AF0312
:010A7700225C
:1010E400ED6401600302119DEFB40C004003021192
:1010F400989010FCF828287302112002112A02117A
:101104003402113E02114802115202115C021166AE
:1011140002117002117A02118402118EC2AFC290C0
:10112400122FF40211D8C2AFC291122FF40211E6A9
:10113400C2AFC292122FF40211F4C2AFC293122FA3
:10114400F4021202C2AFC294122FF4021210C2AF00
:10115400C295122FF402121EC2AFC2B0122FF402B3
:10116400122CC2AFC2B1122FF4021239C2AFC2B2F2
:10117400122FF4021246C2AFC2B3122FF40212535A
:10118400C2AFC2B4122FF4021260C2AFC2B5122FA2
:10119400F402126DD2AF021275EFB40C00400302D8
:1011A40012739011ADF82828730211D10211DF02D5
:1011B40011ED0211FB02120902121702122502128A
:1011C4003202123F02124C021259021266C2AFC21C
:1011D40090122F52D290D2AF021275C2AFC29112A6
:1011E4002F52D291D2AF021275C2AFC292122F52B5
:1011F400D292D2AF021275C2AFC293122F52D293BF
:10120400D2AF021275C2AFC294122F52D294D2AF8F
:10121400021275C2AFC295122F52D295D2AF0212EA
:1012240075C2AFC2B0122F52D2B0D2AF8043C2AF98
:10123400C2B1122F52D2B1D2AF8036C2AFC2B212F3
:101244002F52D2B2D2AF8029C2AFC2B3122F52D220
:10125400B3D2AF801CC2AFC2B4122F52D2B4D2AF39
:10126400800FC2AFC2B5122F52D2B5D2AF8002D214
:0C127400AF900EF9E0FEA3E0FF022F5A3D
:102E8200EFB4010AC2AF122FC6122FF48005C2AFEF
:102E9200122F4F122FCDD2AF900EF9E0FEA3E0FF1A
:032EA200022F5AA2
:102F6800C2AF122FC6900EFB122F55122FCDD2AF23
:092F7800A3E0FEA3E0FF022F5AC2
:101BC600900FBEEDF0EFB40C004003021CC5901B55
:101BD600DBF8282873021BFF021C10021C21021CC2
:101BE60032021C43021C54021C65021C75021C8531
:101BF600021C95021CA5021CB5C2AFC290900EFB3A
:101C0600122F55D290D2AF021CC7C2AFC291900E0E
:101C1600FB122F55D291D2AF021CC7C2AFC292900F
:101C26000EFB122F55D292D2AF021CC7C2AFC2937F
:101C3600900EFB122F55D293D2AF021CC7C2AFC271
:101C460094900EFB122F55D294D2AF021CC7C2AF8E
:101C5600C295900EFB122F55D295D2AF021CC7C269
:101C6600AFC2B0900EFB122F55D2B0D2AF8052C287
:101C7600AFC2B1900EFB122F55D2B1D2AF8042C285
:101C8600AFC2B2900EFB122F55D2B2D2AF8032C283
:101C9600AFC2B3900EFB122F55D2B3D2AF8022C281
:101CA600AFC2B4900EFB122F55D2B4D2AF8012C27F
:101CB600AFC2B5900EFB122F55D2B5D2AF8002D26D
:0C1CC600AF900EFDE0FEA3E0FF022F5ADD
:102EE500AB07E4FAEB30E007AF05122E8280031240
:0B2EF5002F68EBC313FB0AEAB408E9E6
:012F000022AE
:072DB200900FBFEDF0A90333
:102DB900AB07E4FAEB900FBF30E009E0FFAD011279
:102DC90010E48007E0FFAD01121BC6EBC313FB0A39
:042DD900EAB408E070
:012DDD0022D3
:05216F00900F8EEFF05F
:102174007B017A0E79EB7D0C7C00122D85E4900FA7
:102184008FF0A3F0900F8EE0FF121564900F93EE82
:10219400F0A3EFF0E4900F91F0A3F012001D900F64
:1021A40091E0FEA3E0FF24EBF582740E3EF583E09C
:1021B400FDC313F074017E00A807088005C333CE65
:1021C40033CED8F9FF900F93E05EFEA3E05F4E603C
:1021D40014900F91E0FEA3E024EBF582740E3EF51B
:1021E40083E04480F0900F92E004F07006900F9129
:1021F400E004F0C3900F92E0940C900F91E064809F
:1022040094804097900F90E004F07006900F8FE058
:1022140004F0C3900F90E09408900F8FE0648094D2
:0C2224008050030221887B017A0E79EBC8
:01223000228B
:0827D300900F95EFF0A3EDF06B
:1027DB00E4900F99F0A3F0900F97F0A3F0900F995E
:1027EB00E0C313F0A3E013F0900F95E0FFA3E0FD1F
:1027FB00120757EF600A900F99E0F0A3E04480F0C6
:10280B00900F98E004F07006900F97E004F0C390DF
:10281B000F98E09408900F97E06480948040BE90EE
:05282B000F99A3E0FF7E
:012830002285
:102EC700900EDDEFF0900F30F07B017A0F79317DB6
:0E2ED7000C7C00122D85900EDDE0FF022560C0
:050A7800900F3DEFF0BE
:100A7D00900F417408F0AF05900F43ECF0A3EFF029
:100A8D00900F3EEBF0A3EAF0A3E9F07B017A0F792A
:100A9D00457D037C00122D85900F44E054076003C3
:100AAD007F0122900F30E06012900F3DE02431F570
:100ABD0082E4340FF583E064017025900F3DE0FF73
:100ACD00121280EF6003020BBB900F3DE0FD24314D
:100ADD00F582E4340FF583E0FB7FCC122DB2804814
:100AED00E4FF122560900F3DE0FF121280EF6017BA
:100AFD00900F3DE02431F582E4340FF583E4F07F6F
:100B0D00011225607F0122900F3DE0FDE4FB7F3C4B
:100B1D00122DB27F01122560900F3DE02431F58238
:100B2D00E4340FF5837401F0900F3DE0FD2431F5B1
:100B3D0082E4340FF583E0FB7F0F122DB2900F444A
:100B4D00E0FF900F3DE0FD2431F582E4340FF58395
:100B5D00E0FB122DB2900F43E0FF900F3DE0FD241E
:100B6D0031F582E4340FF583E0FB122DB2900F4185
:100B7D00E0FF14F0EF602C900F3EE0FBA3E475F066
:100B8D00011210CEA9F0FA120FD7FF900F3DE0FD24
:100B9D002431F582E4340FF583E0FB122DB21200FF
:100BAD001D80CA900F3DE0FF121280EF6005900F7F
:100BBD003D806E900F3DE0FD2431F582E4340FF55C
:100BCD0083E0FB7FCC122DB2900F3DE0FD2431F57B
:100BDD0082E4340FF583E0FB7FAA122DB2E4900F6F
:100BED0042F0900F3DE0FF2431F582E4340FF583A0
:100BFD00E0FD1227D3900F42E02445F582E4340F37
:100C0D00F583EFF012001D900F42E004F0E0C39465
:100C1D000340CF900F3DE0FF121280EF900F3D602B
:100C2D000FE02431F582E4340FF583E4F07F0122E7
:100C3D00E0FD2431F582E4340FF583E0FB7FCC1227
:100C4D002DB2900F3DE0FD2431F582E4340FF58394
:100C5D00E0FB7F55122DB2900F45E0FF900F3DE068
:100C6D00FD2431F582E4340FF583E0FB122DB290B3
:100C7D000F46E0FF900F3DE0FD2431F582E4340F87
:100C8D00F583E0FB122DB2900F47E0FF900F3DE092
:100C9D00FD2431F582E4340FF583E0FB122DB27F94
:010CAD000046
:010CAE002223
:10183100900F48EFF0900F4BEBF0A3EAF0A3E9F023
:10184100AF05900F51ECF0A3EFF0900F4BE0FBA32D
:10185100E0FAA3E0F9EA494B70037F0122900F30CF
:10186100E06012900F48E02431F582E4340FF583F3
:10187100E064017034900F48E0FF121280EF6012B3
:10188100900F48E02431F582E4340FF583E4F07FD2
:101891000122900F48E0FD2431F582E4340FF583F5
:1018A100E0FB7FCC122DB28048E4FF122560900F3F
:1018B10048E0FF121280EF6017900F48E02431F5E5
:1018C10082E4340FF583E4F07F011225607F012269
:1018D100900F48E0FDE4FB7F3C122DB27F01122501
:1018E10060900F48E02431F582E4340FF5837401F0
:1018F100F0900F48E0FD2431F582E4340FF583E0E8
:10190100FB7FF0122DB2900F52E0FF900F48E0FDE7
:101911002431F582E4340FF583E0FB122DB2900FF0
:1019210051E0FF900F48E0FD2431F582E4340FF5DA
:1019310083E0FB122DB2E4900F4FF0A3F0900F4E15
:10194100E0FFC3900F50E09F7480F8900F4FE06468
:101951008098503A900F48E0FF2431F582E4340F2B
:10196100F583E0FD1227D3900F4BE0FBA3E475F064
:10197100011210CEA9F0FAEF12101D12001D900FE6
:1019810050E004F07006900F4FE004F080AF7F004C
:011991002233
:0B16CE00900F21EBF0A3EAF0A3E9F07D
:1016D900E4900F29F0A3F0900F2EEEF0A3EFF09015
:1016E9000F21E0FBA3E0FAA3E0F9EA494B70037F7D
:1016F90001221229E6900F29EEF0A3EFF0E4FD7F15
:10170900CC122EE5E4FD7FF0122EE5900F2FE0FFBD
:10171900E4FD122EE5900F2EE0FFE4FD122EE5E424
:10172900900F25F0A3F0900F24E0FFC3900F26E05F
:101739009F7480F8900F25E0648098400302182E6A
:10174900E4FF12216F900F2BEBF0A3EAF0A3E9F06D
:10175900E4900F27F0A3F0900F27E0FEA3E0FFC36A
:10176900940CEE64809480400302181A74017E0080
:10177900A807088005C333CE33CED8F9FF900F29C7
:10178900E05EFEA3E05F4E6030900F24E0FF7E0034
:10179900900F27E0FCA3E0FD121051900F26E02FD7
:1017A900FF900F25E03EFE900F21E0FBA3E0FAA396
:1017B900E0F98F828E83E48044900F2BE0FBA3E055
:1017C900FAA3E0F9900F27E0FCA3E0FDF5828C83F2
:1017D900120FF0FFC007900F24E0FF7E0012105196
:1017E900900F26E02FFF900F25E03EFE900F21E09D
:1017F900FBA3E0FAA3E0F98F828E83D0E012102FC9
:10180900900F28E004F07006900F27E004F002170B
:101819006012001D900F26E004F07006900F25E07D
:0718290004F002172F7F00FD
:011830002295
:051FC400900F9BEFF0FF
:101FC900900F9F7408F0900F9CEBF0A3EAF0A3E93F
:101FD900F0900F30E06012900F9BE02431F582E41D
:101FE900340FF583E064017048E4FF122560900F17
:101FF9009BE0FF121280EF6017900F9BE02431F5F0
:1020090082E4340FF583E4F07F011225607F012219
:10201900900F9BE0FDE4FB7F3C122DB27F0112255E
:1020290060900F9BE02431F582E4340FF58374014D
:10203900F0900F9BE0FF121280EF6012900F9BE06F
:102049002431F582E4340FF583E4F07F0122900F07
:102059009BE0FD2431F582E4340FF583E0FB7F3307
:10206900122DB2E4900FA0F0900F9BE0FF2431F500
:1020790082E4340FF583E0FD1227D3900F9CE0FB37
:10208900A3E475F0011210CEA9F0FAEF12101D1297
:10209900001D900FA0E004F0E0C3940840CA7F003F
:0120A9002214
:052E7900420E71000192
:102F1C00900E71E4F0A304F0E4A3F0900E70F0A313
:0A2F2C00F0A3F0900E77F0A3F0225E
:0E2C510024C0FFEE346FFE900F5DF0A3EFF095
:102C5F00D3EF94FFEE94FB50218E258F26C2AF75D4
:102C6F00B7A575B7F1438F02438F0185268285255E
:0A2C7F008374FFF0538FFE538FFDA6
:012C89002228
:092CC200E0FEA3E0FF120FD7FDB4
:102CCB00D3EF94FFEE94FB50228E268F27C2AF5387
:102CDB00AFFE538FFD438F0175B7A575B7F18527F0
:0B2CEB0082852683EDF0538FFCD2AFF2
:012CF60022BB
:0F2B940024C0FFEE346FFE7B017A0E79797D400D
:022BA300AC057F
:102BA500900EE0EEF0A3EFF0E4F525E525C39C508B
:102BB5001F900EE0122CC2900EE1E004F07006901A
:102BC5000EE0E004F0740129F9E43AFA052580DB0A
:012BD50022DD
:102A7B00745AF510F511E4F512F513C2AFFF7EF0A1
:102A8B00122C5F900FB374F0F0A3E4F0FB7A007993
:102A9B0010FCECC39406501E900FB3122CC20C907A
:102AAB000FB4E004F07006900FB3E004F07401294A
:092ABB00F9E43AFA80DC02FFFFA5
:102AC400900E70E0603C900E73E0FF04F0EFD3943E
:102AD4000A400D900E71E4F0A304F0E4900E70F03F
:102AE400900E77E07002A3E0601D900E73E0D39423
:102AF400034014122A7BE4900E77F0A3F0900E703A
:082B0400F022E4900E73F022B0
:100CAF00E4F516F517900E7004F0900BBDE0FBA362
:100CBF00E0FAA3E02401F9E43AFA900F5FEBF0A316
:100CCF00EAF0A3E9F0A37401F0A3740CF0A374B5D8
:100CDF00F0900F5FE0FBA3E0FAA3E0F990000112A0
:100CEF000FF0FE120FD77C002400FFEC3E900F6533
:100CFF00F0A3EFF0900F5FA3A3E02402F9E43AFA18
:100D0F00900F7BEBF0A3EAF0A3E9F0A3E4F0A37458
:100D1F0040F07B017A0E7979122B50900F62E0FB35
:100D2F00A3E0FAA3E0F9746012101D900F63E4754D
:100D3F00F0011210B8900F62E0FBA3E0FAA3E0F904
:100D4F00744512101D900F63E475F0011210B890E6
:100D5F000BB17409F0900F65E0FEA3E0FF900E71E8
:100D6F00E0FCA3E0FD6F7002EC6E7078EFF47002A0
:100D7F00EEF46070ED540764017012EDAE04780666
:100D8F00C333CE33CED8F9122C5112001D900F65FC
:100D9F00E0FEA3E07806C333CE33CED8F9122B94FE
:100DAF00900E72E004F07006900E71E004F0900E59
:100DBF0071A3E0FF900F62E0FBA3E475F001121046
:100DCF00CEA9F0FAEF12101D900E71E0FF900F6296
:100DDF00E0FBA3E475F0011210CEA9F0FAEF1210A8
:100DEF001D020EDB900F65E0F47003A3E0F46003C7
:100DFF00020E9B900E71E0FEA3E0FF64014E7003A4
:100E0F00020E9BEF540764017014900E71A3E078EB
:100E1F0006C333CE33CED8F9122C5112001D900ECB
:100E2F0071E0FEA3E07806C333CE33CED8F9122B90
:100E3F0094900F62E0FBA3E0FAA3E0F974FF1210A5
:100E4F001D900F63E475F0011210B8900F62E0FB74
:100E5F00A3E0FAA3E0F974FF12101D900F63E4757D
:100E6F00F0011210B8900E71E0FEA3E07806C333C4
:100E7F00CE33CED8F9FF900E77EEF0A3EFF0900EB1
:100E8F0071E4F0A304F0900E70F08040E4900E70C7
:100E9F00F0A3A3E0FF900F62E0FBA3E0FAA3E0F959
:100EAF00EF12101D900F63E475F0011210B8900E41
:100EBF0071E0FF900F62E0FBA3E0FAA3E0F9EF12FD
:100ECF00101D900F63E475F0011210B8E4900E73CB
:010EDF00F022
:010EE00022EF
:101DD900005EBCE2613FDD83C29C7E20A3FD1F4102
:101DE9009DC3217FFCA2401E5F01E3BD3E6082DCF2
:101DF900237D9FC1421CFEA0E1BF5D0380DE3C62E2
:101E0900BEE0025CDF81633D7C22C09E1D43A1FFD1
:101E19004618FAA427799BC584DA3866E5BB5907C1
:101E2900DB856739BAE406581947A5FB7826C49AB1
:101E3900653BD987045AB8E6A7F91B45C6987A24A1
:101E4900F8A6441A99C7257B3A6486D85B05E7B991
:101E59008CD2306EEDB3510F4E10F2AC2F7193CD81
:101E6900114FADF3702ECC92D38D6F31B2EC0E5071
:101E7900AFF1134DCE90722C6D33D18F0C52B0EE61
:101E8900326C8ED0530DEFB1F0AE4C1291CF2D7351
:101E9900CA947628ABF517490856B4EA6937D58B41
:101EA9005709EBB536688AD495CB2977F4AA481631
:101EB900E9B7550B88D6346A2B7597C94A14F6A821
:101EC900742AC896154BA9F7B6E80A54D7896B3511
:0E299300900FA1EBF0A3EAF0A3E9F0A3EDF0A2
:1029A100E4A3F0900FA4E0D3648094804031900FB1
:1029B100A1E0FBA3E0FAA3E0F9120FD7FF900FA566
:1029C100E06F901DD993900FA5F0900FA2E475F0E0
:1029D100011210B812001D900FA4E014F080C490F1
:0429E1000FA5E0FF5F
:0129E50022CF
:102EA500E4FDFCC3ED9FEC9E50177BB87A06EB4A18
:102EB5006008EB1B70011A0080F40DBD00010C8049
:012EC500E22A
:012EC60022E9
:032E7E0001280028
:0E2F8F00758921758CF0758A5FD28CD2A922CB
:03000B0002283197
:0D283100C0E0C0F0C083C082C0D075D008E8
:10283E00758CF0758A5F0528E52875F00584E5F03E
:10284E007002D210E52875F00A84E5F07002D211FC
:10285E00E52875F00F84E5F0700CD2129007F0E0C9
:10286E00B401031220AAE52875F01E84E5F0700469
:04287E00F528D21354
:0B288200D0D0D082D083D0F0D0E03264
:102DDE00900EDDEBF0A3EAF0A3E9F012001D7F00E8
:102DEE007EF4122C5F12001D900EDDE0FBA3E0FAC4
:0C2DFE00A3E0F97D067F007EF4022BA309
:0B2C8A00900EDDEBF0A3EAF0A3E9F0F0
:102C95007525F4752600AA25A9267BFFC003C00269
:102CA500900EDDE0FBA3E0FAA3E0F8AC02AD03D0A3
:0D2CB50002D0037E007F06120FB102001D49
:1025F90002276FE493A3F8E493A34003F68001F262
:1026090008DFF48029E493A3F85407240CC8C333E2
:10261900C4540F4420C8834004F456800146F6DFB1
:10262900E4800B0102040810204080902E5CE47EB7
:10263900019360BCA3FF543F30E509541FFEE493A6
:10264900A360010ECF54C025E060A840B8E493A36D
:10265900FAE493A3F8E493A3C8C582C8CAC583CA98
:10266900F0A3C8C582C8CAC583CADFE9DEE780BE50
:012E81000050
:100EE100E709F608DFFA8046E709F208DFFA803EF3
:100EF10088828C83E709F0A3DFFA8032E309F608E0
:100F0100DFFA8078E309F208DFFA807088828C8347
:100F1100E309F0A3DFFA806489828A83E0A3F608FB
:100F2100DFFA805889828A83E0A3F208DFFA804CD5
:100F310080D280FA80C680D4806980F280338010AC
:100F410080A680EA809A80A880DA80E280CA803315
:100F510089828A83ECFAE493A3C8C582C8CCC5838D
:100F6100CCF0A3C8C582C8CCC583CCDFE9DEE7805D
:100F71000D89828A83E493A3F608DFF9ECFAA9F0DC
:100F8100EDFB2289828A83ECFAE0A3C8C582C8CC32
:100F9100C583CCF0A3C8C582C8CCC583CCDFEADE4B
:100FA100E880DB89828A83E493A3F208DFF980CCAD
:100FB10088F0EF60010E4E60C388F0ED2402B404A6
:100FC1000050B9F582EB2402B4040050AF2323454D
:060FD1008223900F317332
:100FD700BB010689828A83E0225002E722BBFE0218
:090FE700E32289828A83E493224B
:100FF000BB010CE58229F582E5833AF583E02250B6
:1010000006E92582F8E622BBFE06E92582F8E222FF
:0D101000E58229F582E5833AF583E4932219
:10101D00BB010689828A83F0225002F722BBFE01B2
:02102D00F322AC
:10102F00F8BB010DE58229F582E5833AF583E8F0F7
:10103F00225006E92582C8F622BBFE05E92582C8A3
:02104F00F2228B
:10105100EF8DF0A4A8F0CF8CF0A428CE8DF0A42EB3
:02106100FE226D
:10106300BC000BBE0029EF8DF084FFADF022E4CC71
:10107300F875F008EF2FFFEE33FEEC33FCEE9DEC3A
:10108300984005FCEE9DFE0FD5F0E9E4CEFD22ED80
:10109300F8F5F0EE8420D21CFEADF075F008EF2FCA
:1010A300FFED33FD4007985006D5F0F222C398FDBB
:0510B3000FD5F0EA2258
:1010B800C5F0F8A3E028F0C5F0F8E58215827002C3
:0610C8001583E038F02260
:1010CE00A3F8E0C5F025F0F0E582158270021583D5
:0610DE00E0C838F0E82232
:00000001FF
